{
	"data": {
		"bytecode": {
			"linkReferences": {},
			"object": "608060405234801561001057600080fd5b50610295806100206000396000f3fe608060405234801561001057600080fd5b506004361061004c5760003560e01c80634cc87fcb1461005157806352f0559a1461006d5780639829e9d414610089578063c4a99145146100a5575b600080fd5b61006b600480360381019061006691906101e2565b6100c1565b005b610087600480360381019061008291906101e2565b610104565b005b6100a3600480360381019061009e91906101e2565b610147565b005b6100bf60048036038101906100ba91906101e2565b61018a565b005b806001819055507f5ab79fddb65e750d623e1162e0d60022f3da94b3a500963d24558559e7abd62b6001546040516100f9919061021e565b60405180910390a150565b806000819055507f60a85c4ab61ce16d420d23633c88c8d6ee8d48584bbb4079dcf45ad3496c5cbb60005460405161013c919061021e565b60405180910390a150565b806003819055507fc228160cc273efa241eb4d65912c205de34b3190f59406136164cb12568c897760035460405161017f919061021e565b60405180910390a150565b806002819055507f8d2b663f4674e2aa20e042697c11eda685ec93cbd37a23a467e96ac0b85705a66002546040516101c2919061021e565b60405180910390a150565b6000813590506101dc81610248565b92915050565b6000602082840312156101f8576101f7610243565b5b6000610206848285016101cd565b91505092915050565b61021881610239565b82525050565b6000602082019050610233600083018461020f565b92915050565b6000819050919050565b600080fd5b61025181610239565b811461025c57600080fd5b5056fea26469706673582212203a898393e7a4f1c7576e58bc0941032fd979b217771881aa109bb83b521a82eb64736f6c63430008060033",
			"opcodes": "PUSH1 0x80 PUSH1 0x40 MSTORE CALLVALUE DUP1 ISZERO PUSH2 0x10 JUMPI PUSH1 0x0 DUP1 REVERT JUMPDEST POP PUSH2 0x295 DUP1 PUSH2 0x20 PUSH1 0x0 CODECOPY PUSH1 0x0 RETURN INVALID PUSH1 0x80 PUSH1 0x40 MSTORE CALLVALUE DUP1 ISZERO PUSH2 0x10 JUMPI PUSH1 0x0 DUP1 REVERT JUMPDEST POP PUSH1 0x4 CALLDATASIZE LT PUSH2 0x4C JUMPI PUSH1 0x0 CALLDATALOAD PUSH1 0xE0 SHR DUP1 PUSH4 0x4CC87FCB EQ PUSH2 0x51 JUMPI DUP1 PUSH4 0x52F0559A EQ PUSH2 0x6D JUMPI DUP1 PUSH4 0x9829E9D4 EQ PUSH2 0x89 JUMPI DUP1 PUSH4 0xC4A99145 EQ PUSH2 0xA5 JUMPI JUMPDEST PUSH1 0x0 DUP1 REVERT JUMPDEST PUSH2 0x6B PUSH1 0x4 DUP1 CALLDATASIZE SUB DUP2 ADD SWAP1 PUSH2 0x66 SWAP2 SWAP1 PUSH2 0x1E2 JUMP JUMPDEST PUSH2 0xC1 JUMP JUMPDEST STOP JUMPDEST PUSH2 0x87 PUSH1 0x4 DUP1 CALLDATASIZE SUB DUP2 ADD SWAP1 PUSH2 0x82 SWAP2 SWAP1 PUSH2 0x1E2 JUMP JUMPDEST PUSH2 0x104 JUMP JUMPDEST STOP JUMPDEST PUSH2 0xA3 PUSH1 0x4 DUP1 CALLDATASIZE SUB DUP2 ADD SWAP1 PUSH2 0x9E SWAP2 SWAP1 PUSH2 0x1E2 JUMP JUMPDEST PUSH2 0x147 JUMP JUMPDEST STOP JUMPDEST PUSH2 0xBF PUSH1 0x4 DUP1 CALLDATASIZE SUB DUP2 ADD SWAP1 PUSH2 0xBA SWAP2 SWAP1 PUSH2 0x1E2 JUMP JUMPDEST PUSH2 0x18A JUMP JUMPDEST STOP JUMPDEST DUP1 PUSH1 0x1 DUP2 SWAP1 SSTORE POP PUSH32 0x5AB79FDDB65E750D623E1162E0D60022F3DA94B3A500963D24558559E7ABD62B PUSH1 0x1 SLOAD PUSH1 0x40 MLOAD PUSH2 0xF9 SWAP2 SWAP1 PUSH2 0x21E JUMP JUMPDEST PUSH1 0x40 MLOAD DUP1 SWAP2 SUB SWAP1 LOG1 POP JUMP JUMPDEST DUP1 PUSH1 0x0 DUP2 SWAP1 SSTORE POP PUSH32 0x60A85C4AB61CE16D420D23633C88C8D6EE8D48584BBB4079DCF45AD3496C5CBB PUSH1 0x0 SLOAD PUSH1 0x40 MLOAD PUSH2 0x13C SWAP2 SWAP1 PUSH2 0x21E JUMP JUMPDEST PUSH1 0x40 MLOAD DUP1 SWAP2 SUB SWAP1 LOG1 POP JUMP JUMPDEST DUP1 PUSH1 0x3 DUP2 SWAP1 SSTORE POP PUSH32 0xC228160CC273EFA241EB4D65912C205DE34B3190F59406136164CB12568C8977 PUSH1 0x3 SLOAD PUSH1 0x40 MLOAD PUSH2 0x17F SWAP2 SWAP1 PUSH2 0x21E JUMP JUMPDEST PUSH1 0x40 MLOAD DUP1 SWAP2 SUB SWAP1 LOG1 POP JUMP JUMPDEST DUP1 PUSH1 0x2 DUP2 SWAP1 SSTORE POP PUSH32 0x8D2B663F4674E2AA20E042697C11EDA685EC93CBD37A23A467E96AC0B85705A6 PUSH1 0x2 SLOAD PUSH1 0x40 MLOAD PUSH2 0x1C2 SWAP2 SWAP1 PUSH2 0x21E JUMP JUMPDEST PUSH1 0x40 MLOAD DUP1 SWAP2 SUB SWAP1 LOG1 POP JUMP JUMPDEST PUSH1 0x0 DUP2 CALLDATALOAD SWAP1 POP PUSH2 0x1DC DUP2 PUSH2 0x248 JUMP JUMPDEST SWAP3 SWAP2 POP POP JUMP JUMPDEST PUSH1 0x0 PUSH1 0x20 DUP3 DUP5 SUB SLT ISZERO PUSH2 0x1F8 JUMPI PUSH2 0x1F7 PUSH2 0x243 JUMP JUMPDEST JUMPDEST PUSH1 0x0 PUSH2 0x206 DUP5 DUP3 DUP6 ADD PUSH2 0x1CD JUMP JUMPDEST SWAP2 POP POP SWAP3 SWAP2 POP POP JUMP JUMPDEST PUSH2 0x218 DUP2 PUSH2 0x239 JUMP JUMPDEST DUP3 MSTORE POP POP JUMP JUMPDEST PUSH1 0x0 PUSH1 0x20 DUP3 ADD SWAP1 POP PUSH2 0x233 PUSH1 0x0 DUP4 ADD DUP5 PUSH2 0x20F JUMP JUMPDEST SWAP3 SWAP2 POP POP JUMP JUMPDEST PUSH1 0x0 DUP2 SWAP1 POP SWAP2 SWAP1 POP JUMP JUMPDEST PUSH1 0x0 DUP1 REVERT JUMPDEST PUSH2 0x251 DUP2 PUSH2 0x239 JUMP JUMPDEST DUP2 EQ PUSH2 0x25C JUMPI PUSH1 0x0 DUP1 REVERT JUMPDEST POP JUMP INVALID LOG2 PUSH5 0x6970667358 0x22 SLT KECCAK256 GASPRICE DUP10 DUP4 SWAP4 0xE7 LOG4 CALL 0xC7 JUMPI PUSH15 0x58BC0941032FD979B217771881AA10 SWAP12 0xB8 EXTCODESIZE MSTORE BYTE DUP3 0xEB PUSH5 0x736F6C6343 STOP ADDMOD MOD STOP CALLER "
		},
		"gasEstimates": {
			"creation": {
				"codeDepositCost": "132200",
				"executionCost": "177",
				"totalCost": "132377"
			},
			"external": {
				"setDriverOfferHash(uint256)": "infinite",
				"setRiderRequestHash(uint256)": "infinite",
				"setRootDriverHash(uint256)": "infinite",
				"setRootRiderHash(uint256)": "infinite"
			}
		},
		"methodIdentifiers": {
			"setDriverOfferHash(uint256)": "4cc87fcb",
			"setRiderRequestHash(uint256)": "52f0559a",
			"setRootDriverHash(uint256)": "9829e9d4",
			"setRootRiderHash(uint256)": "c4a99145"
		}
	},
	"abi": [
		{
			"anonymous": false,
			"inputs": [
				{
					"indexed": false,
					"internalType": "uint256",
					"name": "riderRequestHash",
					"type": "uint256"
				}
			],
			"name": "gatRiderRequestHash",
			"type": "event"
		},
		{
			"anonymous": false,
			"inputs": [
				{
					"indexed": false,
					"internalType": "uint256",
					"name": "driverOfferHash",
					"type": "uint256"
				}
			],
			"name": "getDriverOfferHash",
			"type": "event"
		},
		{
			"anonymous": false,
			"inputs": [
				{
					"indexed": false,
					"internalType": "uint256",
					"name": "rootDriverHash",
					"type": "uint256"
				}
			],
			"name": "getRootDriverHash",
			"type": "event"
		},
		{
			"anonymous": false,
			"inputs": [
				{
					"indexed": false,
					"internalType": "uint256",
					"name": "rootRiderHash",
					"type": "uint256"
				}
			],
			"name": "getRootRiderHash",
			"type": "event"
		},
		{
			"inputs": [
				{
					"internalType": "uint256",
					"name": "_driverOfferHash",
					"type": "uint256"
				}
			],
			"name": "setDriverOfferHash",
			"outputs": [],
			"stateMutability": "nonpayable",
			"type": "function"
		},
		{
			"inputs": [
				{
					"internalType": "uint256",
					"name": "_riderRequestHash",
					"type": "uint256"
				}
			],
			"name": "setRiderRequestHash",
			"outputs": [],
			"stateMutability": "nonpayable",
			"type": "function"
		},
		{
			"inputs": [
				{
					"internalType": "uint256",
					"name": "_rootDriverHash",
					"type": "uint256"
				}
			],
			"name": "setRootDriverHash",
			"outputs": [],
			"stateMutability": "nonpayable",
			"type": "function"
		},
		{
			"inputs": [
				{
					"internalType": "uint256",
					"name": "_rootRiderHash",
					"type": "uint256"
				}
			],
			"name": "setRootRiderHash",
			"outputs": [],
			"stateMutability": "nonpayable",
			"type": "function"
		}
	]
}